:020000040000fa
:080000000002040000000000f2
:020000040000fa
:04000800c80200002a
:020000040000fa
:04000c00c802000026
:020000040000fa
:04001000c802000022
:020000040000fa
:04001400c80200001e
:020000040000fa
:04001800c80200001a
:020000040000fa
:04001c00c802000016
:020000040000fa
:04002000c802000012
:020000040000fa
:04002400c80200000e
:020000040000fa
:04002800c80200000a
:020000040000fa
:04002c00c802000006
:020000040000fa
:04003000c802000002
:020000040000fa
:04003400c8020000fe
:020000040000fa
:04003800c8020000fa
:020000040000fa
:04003c00c8020000f6
:020000040000fa
:04004000c8020000f2
:020000040000fa
:04004400c8020000ee
:020000040000fa
:04004800c8020000ea
:020000040000fa
:04004c00c8020000e6
:020000040000fa
:04005000c8020000e2
:020000040000fa
:04005400c8020000de
:020000040000fa
:04005800c8020000da
:020000040000fa
:04005c00c8020000d6
:020000040000fa
:04006000c8020000d2
:020000040000fa
:04006400c8020000ce
:020000040000fa
:04006800c8020000ca
:020000040000fa
:04006c00c8020000c6
:020000040000fa
:04007000c8020000c2
:020000040000fa
:04007400c8020000be
:020000040000fa
:04007800c8020000ba
:020000040000fa
:04007c00c8020000b6
:020000040000fa
:04008000c8020000b2
:020000040000fa
:04008400c8020000ae
:020000040000fa
:04008800c8020000aa
:020000040000fa
:04008c00c8020000a6
:020000040000fa
:04009000c8020000a2
:020000040000fa
:04009400c80200009e
:020000040000fa
:04009800c80200009a
:020000040000fa
:04009c00c802000096
:020000040000fa
:0400a000c802000092
:020000040000fa
:0400a400c80200008e
:020000040000fa
:0400a800c80200008a
:020000040000fa
:0400ac00c802000086
:020000040000fa
:0400b000c802000082
:020000040000fa
:0400b400c80200007e
:020000040000fa
:0400b800c80200007a
:020000040000fa
:0400bc00c802000076
:020000040000fa
:0400c000c802000072
:020000040000fa
:0400c400c80200006e
:020000040000fa
:0400c800c80200006a
:020000040000fa
:0400cc00c802000066
:020000040000fa
:0400d000c802000062
:020000040000fa
:0400d400c80200005e
:020000040000fa
:0400d800c80200005a
:020000040000fa
:0400dc00c802000056
:020000040000fa
:0400e000c802000052
:020000040000fa
:0400e400c80200004e
:020000040000fa
:0400e800c80200004a
:020000040000fa
:0400ec00c802000046
:020000040000fa
:0400f000c802000042
:020000040000fa
:0400f400c80200003e
:020000040000fa
:0400f800c80200003a
:020000040000fa
:0400fc00c802000036
:020000040000fa
:04010000c802000031
:020000040000fa
:04010400c80200002d
:020000040000fa
:04010800c802000029
:020000040000fa
:04010c00c802000025
:020000040000fa
:04011000c802000021
:020000040000fa
:04011400c80200001d
:020000040000fa
:04011800c802000019
:020000040000fa
:04011c00c802000015
:020000040000fa
:04012000c802000011
:020000040000fa
:04012400c80200000d
:020000040000fa
:04012800c802000009
:020000040000fa
:04012c00c802000005
:020000040000fa
:04013000c802000001
:020000040000fa
:04013400c8020000fd
:020000040000fa
:04013800c8020000f9
:020000040000fa
:04013c00c8020000f5
:020000040000fa
:04014000c8020000f1
:020000040000fa
:04014400c8020000ed
:020000040000fa
:04020800c802000028
:020000040000fa
:04020c00c802000024
:020000040000fa
:04021000c802000020
:020000040000fa
:04021400c80200001c
:020000040000fa
:04021800c802000018
:020000040000fa
:04021c00c802000014
:020000040000fa
:04022000c802000010
:020000040000fa
:04022400c80200000c
:020000040000fa
:04022800c802000008
:020000040000fa
:04022c00c802000004
:020000040000fa
:04023000c802000000
:020000040000fa
:04023400c8020000fc
:020000040000fa
:04023800c8020000f8
:020000040000fa
:04023c00c8020000f4
:020000040000fa
:04024000c8020000f0
:020000040000fa
:04024400c8020000ec
:020000040000fa
:04024800c8020000e8
:020000040000fa
:04024c00c8020000e4
:020000040000fa
:04025000c8020000e0
:020000040000fa
:04025400c8020000dc
:020000040000fa
:04025800c8020000d8
:020000040000fa
:04025c00c8020000d4
:020000040000fa
:04026000c8020000d0
:020000040000fa
:04026400c8020000cc
:020000040000fa
:04026800c8020000c8
:020000040000fa
:04026c00c8020000c4
:020000040000fa
:04027000c8020000c0
:020000040000fa
:04027400c8020000bc
:020000040000fa
:04027800c8020000b8
:020000040000fa
:04027c00c8020000b4
:020000040000fa
:04028000c8020000b0
:020000040000fa
:04028400c8020000ac
:020000040000fa
:04028800c8020000a8
:020000040000fa
:04028c00c8020000a4
:020000040000fa
:04029000c8020000a0
:020000040000fa
:04029400c80200009c
:020000040000fa
:04029800c802000098
:020000040000fa
:04029c00c802000094
:020000040000fa
:0402a000c802000090
:020000040000fa
:0402a400c80200008c
:020000040000fa
:0402a800c802000088
:020000040000fa
:0402ac00c802000084
:020000040000fa
:0402b000c802000080
:020000040000fa
:0402b400c80200007c
:020000040000fa
:0402b800c802000078
:020000040000fa
:0402bc00c802000074
:020000040000fa
:0402c000c802000070
:020000040000fa
:0402c400c80200006c
:020000040000fa
:0402c800c802000068
:020000040000fa
:0402cc00c802000064
:020000040000fa
:0402d000c802000060
:020000040000fa
:0402d400c80200005c
:020000040000fa
:0402d800c802000058
:020000040000fa
:0402dc00c802000054
:020000040000fa
:0402e000c802000050
:020000040000fa
:0402e400c80200004c
:020000040000fa
:0402e800c802000048
:020000040000fa
:0402ec00c802000044
:020000040000fa
:0402f000c802000040
:020000040000fa
:0402f400c80200003c
:020000040000fa
:0402f800c802000038
:020000040000fa
:0402fc00c802000034
:020000040000fa
:04030000c80200002f
:020000040000fa
:04030400c80200002b
:020000040000fa
:04030800c802000027
:020000040000fa
:04030c00c802000023
:020000040000fa
:04031000c80200001f
:020000040000fa
:04031400c80200001b
:020000040000fa
:04031800c802000017
:020000040000fa
:04031c00c802000013
:020000040000fa
:04032000c80200000f
:020000040000fa
:04032400c80200000b
:020000040000fa
:04032800c802000007
:020000040000fa
:04032c00c802000003
:020000040000fa
:04033000c8020000ff
:020000040000fa
:04033400c8020000fb
:020000040000fa
:04033800c8020000f7
:020000040000fa
:04033c00c8020000f3
:020000040000fa
:04034000c8020000ef
:020000040000fa
:04034400c8020000eb
:020000040000fa
:100400000f8020000e6f24000e0188000000000005
:10041000000020000000e000020032000001200087
:1004200020028800140007005b0007000000e000c5
:1004300003003a002057200001002000020037008e
:100440000000200001002000810f70000100320038
:1004500014000700000020000000e000020032004d
:100460000000020000000000a405020000000000df
:100470000040da000000fe004440a9000000200017
:100480000000e0000300320000002000a00188000e
:100490004440a800000006008a1f78008b1f7800e7
:1004a0000000060091018800800478000000eb0045
:1004b0001a003700e284440032a0b4009905ba0063
:1004c000e284440032a0b4009906ba00e2844400f9
:1004d00032a0b4000006eb00476fde00fd07b2005b
:1004e000636ce10003003a00ebff07000000eb0043
:1004f0000a003700606ce10004003a00005deb0088
:100500008b05e900fdff3e00040037006168e10053
:10051000010032000086eb000b00070019c7ba008b
:100520001905ba000e04e00003003a000a00e000da
:10053000e0ff3a0000000600fe07b2009e018800be
:100540008a047800f5ff3700395dba008b05e900b1
:100550000c003200295dba008b05e900080032006a
:100560000c00e00003003a00e284440032a0b40032
:10057000f5ff370019ddba008b05e900faff3a00f4
:100580008904e800e184440032a0b40000000600c1
:0c0590000040da000000fe000000050042
:020000040000fa
:10059c000000fa003002a9008111800090ff2f00aa
:1005ac00008060008011880030a2a900a002200009
:1005bc00c011880033a2a90033e2a9009111800078
:1005cc00f0f32f00008060009011880031e2a80049
:1005dc003342a8009c40a9000080fa0000000600ed
:1005ec000000fa00e0012000b01e8800602320000b
:1005fc00e01e8800a11e8000f0fc2f00008060002f
:10060c00a01e8800a11e8000c0ff2f00008060008b
:10061c000010a000a01e8800d5a3a900d5c3a90076
:10062c0070002000f01e880000712000c01e8800a1
:10063c0000702000d01e88008ca0a9009ca0a800ef
:10064c00d5e3a8000080fa00000006000000fa00c4
:10065c00f0012000701c880040232000a01c8800a2
:10066c00611c8000f0fc2f0000806000601c880082
:10067c00611c8000c0ff2f00008060000000a00003
:10068c00601c88008da3a8008dc3a90070002000f9
:10069c00b01c880000712000801c880085c0a90057
:1006ac0095c0a8008de3a8000080fa0000000600a9
:1006bc000000fa00b6ff0700e4ff0700c8ff0700c0
:1006cc000080fa00000006000000fa006004200020
:1006dc00101c880020442000401c8800007820005a
:1006ec00201c880070002000501c880000022a008a
:1006fc00001c8800e023ef000080fa0000000600d8
:10070c000000fa0020022000d01c880000442000c9
:10071c00001d880000782000e01c8800700020007c
:10072c00101d880000022800c01c8800e023ef0088
:10073c000080fa00000006000000fa000120800092
:10074c00f08f2f000080600000a0a0000020880027
:10075c000000000001208000000e2000808060005e
:10076c0000082000808f5000faff3a0031208000f2
:10077c00f0ff21000080600000f0a0003020880015
:10078c0001208000f08f2f00008060000020880086
:10079c000000000001208000000e2000008060009e
:1007ac000000e000fbff3a0030e4a80031e4a900af
:1007bc00802180003000b3008021880081218000de
:1007cc000030200001007000802188008120800012
:1007dc0000fc2f0000806000802088000080fa0060
:1007ec00000006000000fa00d3ff0700b6ff070068
:1007fc00c3ff07000080fa00000006000000fa00aa
:10080c003002a9008111800090ff2f000080600051
:10081c008011880030a2a900a0022000c01188001d
:10082c0033a2a90033e2a90091118000f0f32f004c
:10083c00008060009011880031e2a8003342a800cb
:10084c009c40a9000080fa00000006000000fa009d
:10085c00e0012000f01d880060232000201e88008d
:10086c00e11d8000f0fc2f0000806000e01d88007e
:10087c00e11d8000c0ff2f00008060000010a00070
:10088c00e01d8800bda3a900bdc3a9007000200015
:10089c00301e880000732000001e880000722000ab
:1008ac00101e88008ba0a9009ba0a800bde3a80087
:1008bc000080fa00000006000000fa00f0012000a1
:1008cc00501e880040232000801e8800411e80009e
:1008dc00f0fc2f0000806000401e8800411e80004c
:1008ec00c0ff2f00008060000000a000401e8800a8
:1008fc00c9a3a800c9c3a90070002000901e8800dd
:10090c0000732000601e88008c80a9009c80a800c9
:10091c000080fa00000006000000fa00b7ff070094
:10092c00caff0700e4ff07000080fa000000060081
:10093c000000fa0070042000701c88002054200075
:10094c00a01c8800007c2000801c88007000200007
:10095c00b01c880000022a00601c8800e023ef0015
:10096c000080fa00000006000000fa00700320006e
:10097c00301d880000542000601d8800007c200081
:10098c00401d880070002000701d880000022800a7
:10099c00201d8800e023ef000080fa000000060014
:1009ac000000fa0001288000f08f2f00008060000a
:1009bc0000a0a00000288800000000000128800092
:1009cc00000e20008080600000082000808f500006
:1009dc00faff3a0031288000f0ff2100008060000f
:1009ec0000f0a0003028880001288000f08f2f0034
:1009fc0000806000002888000000000001288000b2
:100a0c00000e2000008060000000e000fbff3a00b8
:100a1c0031e5a900802980003000b30080298800ce
:100a2c00812980000030200001007000802988009e
:100a3c008128800000fc2f00008060008028880046
:100a4c000080fa00000006000000fa00d4ff070046
:100a5c00c5ff07000080fa00000006000000fa0045
:100a6c004342a8008540a9009540a90042a2a800d5
:100a7c0040c2a90041e2a8000080fa000000060074
:100a8c000000fa00a0002000901d880080242000a7
:100a9c00c01d880000762000a01d88000074200076
:100aac00b01d8800f0002000d01d8800200022001e
:100abc00801d8800e023ef00b1e3a8000080fa005d
:100acc00000006000000fa00e4ff0700ecff07003e
:080adc000080fa000000060092
:020000040000fa
:100ae400804700004000000000000000c0470000f4
:100af400400000000000000030470000100000002b
:100b0400000000002047000010000000000000006a
:100b14001047000010000000000000000047000023
:100b240010000000000000006047000020000000ea
:100b3400000000004047000020000000000000000a
:040b440000000000ad
:020000040000fa
:100b48000000fa0028ff070074ff0700bfff070036
:0c0b5800d8fe070000000000feff370080
:00000001FF
